:1000000019C028C027C026C025C024C023C022C0D4
:1000100021C020C01FC01EC01DC01CC01BC01AC0F4
:100020001AC018C017C016C015C02DC013C012C00A
:1000300011C010C011241FBECFEFD4E0DEBFCDBF72
:1000400011E0A0E0B1E001C01D92A430B107E1F7DA
:100050005FD093C0D5CF1F920F920FB60F9211248D
:100060008F93809100018F5F809300018F3029F47E
:100070001092000181E0809301018F910F900FBEDB
:100080000F901F9018951F920F920FB60F92112488
:100090002F938F939F938091780090917900909304
:1000A0000301809302018091020190910301825625
:1000B000924010F45F9801C05F9A80910201909184
:1000C00003018C56924028F4419A429A439A4498EC
:1000D00017C080910201909103018659924018F453
:1000E000419A429A0BC08091020190910301815C78
:1000F000924010F4419A01C0419842984398449A22
:100100009F918F912F910F900FBE0F901F90189578
:1001100088B18E6388B985B18FEF85B99BB18BB9F2
:1001200087B18E6187B9579A809164008E6C8093F5
:10013000640085B5856085BD80916E008160809387
:100140006E0080917C00806C80937C0080917A00AE
:100150008E6880937A0083B7816083BF78948091A2
:100160000101813029F41092010183B7826083BFBD
:0E01700083B7857F83BF8895F2CFF894FFCFC9
:00000001FF
